:020000040000FA
:10000000300F0020C5030000EF030000F1030000E3
:10001000F3030000F5030000F703000000000000F8
:10002000000000000000000000000000F9030000D4
:10003000FB03000000000000FD030000FF030000C0
:1000400051060000010400006109000001040000E5
:100050000104000000000000AD05000001040000E4
:10006000010400000104000001040000010400007C
:10007000010400000104000001040000010400006C
:1000800001040000A90600000104000001040000B2
:100090000104000001040000B90600000104000092
:1000A0000104000001040000000000000000000046
:1000B0000104000001040000000000000000000036
:1000C0000000000000000000000000000000000030
:1000D0000000000000000000000000000000000020
:1000E0000000000000000000000000000000000010
:1000F0000000000000000000000000000000000000
:1001000000000000000000000000000000000000EF
:1001100000000000000000000000000000000000DF
:1001200000000000000000000000000000000000CF
:1001300000000000000000000000000000000000BF
:1001400000000000000000000000000000000000AF
:10015000000000000000000000000000000000009F
:10016000000000000000000000000000000000008F
:10017000000000000000000000000000000000007F
:10018000000000000000000000000000000000006F
:10019000000000000000000000000000000000005F
:1001A000000000000000000000000000000000004F
:1001B000000000000000000000000000000000003F
:1001C000000000000000000000000000000000002F
:1001D000000000000000000000000000000000001F
:1001E000000000000000000000000000000000000F
:1001F00000000000000000000000000000000000FF
:10020000DFF810D000F094F900480047D5580000FE
:10021000AFF30080300F002030B450E8012F93B2CC
:10022000C48923448489A34228BF1B1B0489A34299
:1002300002BFBFF32F8F002007E0C3EA020340E8AC
:100240000134002CE9D14FF001000A6030BC704746
:1002500050E8012FC2EA024240E801210029F7D10B
:10026000704730B450E8022F1FFAA2F3C488A342AB
:1002700002BFBFF32F8F00200DE0C489234484897F
:10028000A34228BF1B1BC2EA034340E80234002CF0
:10029000E8D14FF001000A6030BC704750E8022FEF
:1002A000C2EA224240E802210029F7D17047034602
:1002B00053E8022FD988B2EB324F4FF0000017BF3E
:1002C00092B241EA014142EA014104E05A68B2EBCC
:1002D000324F08BF012043E80212002AE8D17047DC
:1002E00030B4044654E8000F0D4644E80053002B98
:1002F000F8D1156030BC704730B4044654E8000FA4
:1003000040EA010544E80053002BF7D1156030BCEA
:10031000704730B4044654E8000F00EA010544E891
:100320000053002BF7D1156030BC704730B4044641
:1003300054E8000F80EA010544E80053002BF7D190
:10034000156030BC704730B4044654E8000F00EB31
:10035000010544E80053002BF7D1156030BC70470D
:1003600030B4044654E8000FA0EB010544E8005304
:10037000002BF7D1156030BC704770B404464FF0C5
:10038000000054E8006F0D68AE4207BF44E8002348
:10039000012044E800630E60002B1CBF0020F0E742
:1003A00070BC704730B4044654E8000F88422CBF3C
:1003B000451A054644E80053002BF5D1156030BCC2
:1003C000704700000F4800680F4909680A280AD1E1
:1003D000002908D10D4802686FF070031A404FF0F1
:1003E00040031A4302600A4880470A480047FEE774
:1003F000FEE7FEE7FEE7FEE7FEE7FEE7FEE7FEE7D5
:10040000FEE700003001001034010010E40E00404F
:10041000D9060000010200002DE9F05F054600202A
:1004200092469B4688460646814640241BE0284665
:1004300041464746224600F06BF853465A46C01ADA
:10044000914110D311461846224600F016F82D1A95
:1004500067EB01084F4622460120002100F00DF80D
:1004600017EB00094E41201EA4F10104DFDC4846D1
:1004700031462A464346BDE8F09F202A04DB203A55
:1004800000FA02F1002070479140C2F1200320FAE7
:1004900003F319439040704700487047B0D4000000
:1004A00040EA01039B0703D009E008C9121F08C0F6
:1004B000042AFAD203E011F8013B00F8013B521E76
:1004C000F9D27047D2B201E000F8012B491EFBD2ED
:1004D00070470022F6E710B513460A46044619464F
:1004E000FFF7F0FF204610BD421C10F8011B002949
:1004F000FBD1801A704730B504460020034600E067
:100500005B1C934203D2E05CCD5C401BF8D030BD55
:10051000202A04DB203A21FA02F00021704721FA58
:1005200002F3D040C2F120029140084319467047BF
:10053000064C074D06E0E06840F0010394E8070030
:1005400098471034AC42F6D3FFF75EFEB0EA0000E5
:10055000F0EA000070B58C1810F8015B15F0070385
:1005600001D110F8013B2A1106D110F8012B03E04C
:1005700010F8016B01F8016B5B1EF9D12B0705D454
:100580000023521E0DD401F8013BFAE710F8013B9D
:10059000CB1A921C03E013F8015B01F8015B521EB9
:1005A000F9D5A142D8D3002070BD00002DE9F84351
:1005B0000025DFF894804FF4807601242F460095C3
:1005C000304606F003FB38B1D8F80403204203D0CC
:1005D000304606F0F1FA2543361D64007F1CB6B2A2
:1005E000082FEDD34FF4BE74204606F0EFFA48B161
:1005F000204606F0E1FA45F000456A460121002058
:1006000006F0AAFA15F0FF0F16D0012600242E429C
:100610000ED008EB8401D1F81005D1F81015C0F305
:1006200004200A4AC1F3014152F8242002B1904744
:100630007600641C082CEAD3002D02DA684609F023
:10064000FFFFBDE8F88300000060004088088000DC
:1006500070B54FF48076304605F006FE114CB505B6
:1006600060B1304605F007FE0120C5F80803607947
:1006700020B9012060712168002088474FF48276FC
:10068000304605F0F1FD00280AD0304605F0F3FDB4
:100690000220C5F808032168BDE870400120084722
:1006A00070BD00004003002002490248091F09688C
:1006B00000680847DC00800010B50021054A0846A4
:1006C00000F0D4FB002803D0BDE8104000F09ABB36
:1006D00010BD0000011300002DE9F041914E4FF0D4
:1006E00080548F4DD4F8302130782B68511CC0F3E2
:1006F000031000D1DAB200274FF00108062A05D115
:10070000B4F82413884AC1F304211160D9B2062930
:1007100004D1032802D186498448486705F018FBB4
:1007200028B1D4F844028349C0F3423008602978E4
:1007300030780629C0F3031006D1032804D17E487F
:10074000016821F08071016005F020FB40B14FF09D
:100750008040C0F80C71C0F810717648001F076027
:1007600029683078CAB2C0F30310062A05D10328DD
:1007700003D1704B032264331A60C9B206290ED12B
:1007800003280CD16D4A052111606C497831C1F8FC
:1007900000806A4808300760111D3F20086005F09E
:1007A00013FBE8B366480068664908606448001DAA
:1007B0000068091D0860624808300068091D08606B
:1007C0005F480C300068091D08605D481030006803
:1007D000091D08605A4814300068091D086058480F
:1007E0001830006857492031086055481C300068AF
:1007F000091D0860524820300068091D08605048F3
:1008000024300068091D08604D4828300068091D23
:1008100008604B482C300068091D0860484800E01B
:1008200018E03030006847494031086044483430AF
:100830000068091D0860424838300068091D0860DA
:100840003F483C300068091D08603D484030006862
:10085000091D0860D4F83001411C00D128783A4DB8
:10086000062804D1D4F8580200F04F00286005F0A3
:1008700051FA30B135480168C90702D06FF0010163
:100880000160D4E94C10062907D1C21E022A04D9FE
:100890002F4A136843F4806313600A2905D10200CC
:1008A00003D02A6842F00F022A604FF01022062976
:1008B00007D1C01E032804D9D2F808021D491C31F3
:1008C0000860D2F80002234B002803DBD2F80402B0
:1008D00000280EDA012007F08FFC1520C2F8000274
:1008E00019680029FCD0C2F8040218680028FCD05E
:1008F0000BE092F80C02C0070CD0012007F07CFC42
:10090000C2F80C7218680028FCD0002007F074FCB4
:1009100000F02CF8114910480860BDE8F081000093
:10092000E00F00F0E80F00F0403501400DF0ADBAE7
:1009300000C007403C050040FCED00E010560040C0
:100940000404001020C50040E40E004000040040F4
:100950003C17004000E401400090D003FC0300205D
:10096000014800680047000098008000BFF34F8FE7
:1009700005480168054A01F4E06111430160BFF3D5
:100980004F8F00BFFDE700000CED00E00400FA050A
:1009900002E008C8121F08C1002AFAD17047704748
:1009A000002001E001C1121F002AFBD170470000A6
:1009B0000121202803DA81400548014003E0402856
:1009C00002DA2038814009B10120704700207047C9
:1009D000FC06FFBD2DE9F843804643F2020659B9F3
:1009E000694608F0C3FEB04202D008B100F00AFA2E
:1009F0009DF80000800744D40021404608F0C0FE66
:100A000005003ED0112D3CD01F482049401AC70890
:100A1000022000EB07440D2D0AD00B2D1DD0B5424E
:100A20001FD11B4920464246BDE8F84306F0D0BA24
:100A300020464246174906F0CBFA1321404676DF9E
:100A400000281ED006F0DEFE024601B020464346D6
:100A5000BDE8F04310A106F0C2BA204642461C4948
:100A6000E2E7284606F0CEFE0246012000EB0740F2
:100A7000434618A106F0B3FA2846BDE8F84300F053
:100A8000C1B9BDE8F883000038EB000000EB0000BE
:100A900080DC00000CDC000073645F626C655F67E3
:100AA00061705F646973636F6E6E6563742829207B
:100AB00072657475726E6564202573206F6E206395
:100AC0006F6E6E5F68616E646C652025642E000039
:100AD000CCDC0000417373657274696E672E207000
:100AE0006D5F636F6E6E5F73656375726528292035
:100AF00072657475726E6564202573206F6E206355
:100B00006F6E6E5F68616E646C652025642E0000F8
:100B100010B560B159B102780B785208B2EB530F9F
:100B200005D10622401C491CFFF7E5FC08B1002056
:100B300010BD012010BD800701D0002070470120AA
:100B40007047C3688B4206D811440069491E814230
:100B500001D8012070470020704790F824001F2022
:100B6000704710B501220221002002F029F808B1D7
:100B7000072810D107220221012002F021F808B134
:100B8000072808D100210A22084602F019F808B106
:100B9000072800D1002010BD00B5ABB0AC216846DD
:100BA000FFF797FC02208DF80000012006218DF848
:100BB00002008DF80310164905918DF879008DF823
:100BC0007A000021ADF8100020918DF87C008DF89E
:100BD0007D004FF44860249044F250608DF87B1003
:100BE0002191259028210B482291299040F6B83177
:100BF000094823912A906946084800F0D7FD08B1BA
:100C000000F000F90121054800F0CBFD2BB000BD3C
:100C10000800002011820000A91700005C04800079
:100C200010B560B10D480E49401AC008032101EB10
:100C300000400CA106F0C8F909F058FC06E00120BC
:100C40000BF0C8FE03210B4800F08FFE002803D0F4
:100C5000BDE8104000F0D6B810BD0000B0EB0000B9
:100C600000EB0000457261736520626F6E64732152
:100C7000000000005C04800070B58CB015460E4684
:100C800000236C46C3F10F01415CE1545B1C102B47
:100C9000F8D30D2104F11000FFF71BFC0020C0F178
:100CA0000F02315C2244401C11740328F7D36846BC
:100CB00046DF0020C0F10F01214491F82010295493
:100CC000401C0328F6D30CB070BD022001F06CBEAE
:100CD0000149C97801F0B4B88400800070B50024DF
:100CE000064D06E06868012110F8340006F0FEFDAC
:100CF000641C28788442F5D3002070BDA0008000D9
:100D0000F8B516460C4605460A2A01D20720F8BD5A
:100D100006F0E6FE18B906F0A9FE0028F7D1134F39
:100D2000102113487D603C70BE60FFF7D2FB0020AD
:100D3000C7E904000F4E0DE005EBC40031680091D7
:100D400081788DF8011000780B4A694606F01EFE86
:100D50000028DCD1641EE4B2EED2BDE8F8400548BC
:100D60000021064A001D00F00DB90000A00080001F
:100D700008098000E8D00000ED470000813600003F
:100D800010B572B606F0CAF906F004F80028FBD1D7
:100D900011481249401AC408012000EB044010A178
:100DA00006F012F911480068C00700D000BE02200A
:100DB00000EB04400EA106F007F9BFF34F8F0B487C
:100DC000E43801680E4A01F4E06111430160BFF3A9
:100DD0004F8F00BFFDE70000B0EB000000EB00000C
:100DE000466174616C206572726F7200F0ED00E014
:100DF00053797374656D207265736574000000002B
:100E00000400FA050EB500210091CDE901106A46F3
:100E100044F20100FFF7B4FF0EBD10B58268C3684D
:100E2000934203D003F050F9002010BD052010BDFF
:100E300029B112B1531E134203D0092070470E206E
:100E400070470160838000218160C160084670475F
:100E500010B58268C3689A1A83889A4203D803F04F
:100E60003DF9002010BD042010BD00002DE9F84F11
:100E7000254C8146924660880E46814241D8002723
:100E80004FF6FF788DF80070684600F071F922780F
:100E90006078A188884201DA401C00E00020C0B2DE
:100EA000904204D19DF8000000F086F927E06578B3
:100EB0006078884201DA401C00E0002060709DF8F4
:100EC000000000F079F9454519D0A068B9F1000F8C
:100ED00040F835A00DD066B16188E068324605FB68
:100EE00001004946FFF7DCFAA06800EBC5008680E8
:100EF00002E000EBC50087800020BDE8F88F0420E9
:100F0000FBE70920F9E700004803002010B50E4C6C
:100F100003E0401C00E000202070207861788142CE
:100F200010D022786188E068A36802FB010003EB1F
:100F3000C20153F83220898890472078A1888842DE
:100F4000E9DAE6E710BD00004803002030B5CB0029
:100F500008339DB293074FF0000401D0072030BD45
:100F6000044B9A602A44DA605C701C705880998047
:100F7000002030BD48030020014802F0E8BB00001B
:100F80006003002010B55AB100684FF0FF3401290A
:100F90004261C0E9024400D000210161002010BD7F
:100FA000072010BD38B51148082358224168009128
:100FB0000F49006804F032FF002815D10D4A694638
:100FC0000D4802F0C9FB04000ED101210A4802F0CD
:100FD0003EFC0123094A1946074802F090FB0649E6
:100FE000012008390870204638BD0000F0D000000C
:100FF0005005002069AF000060030020FFFF7F0064
:10100000F8B50446002617460D468DF80060684680
:1010100000F0AEF8D4E90201C04370EA010005D047
:101020009DF8000000F0C8F80020F8BD03F0C4FBF4
:1010300040197141C4E902019DF8000000F0BCF8BC
:10104000A761206900B125612146BDE8F840002074
:101050000BF0F4B838B5044600208DF8000068465F
:1010600000F086F8D4E90201C04370EA01000DD017
:101070004FF0FF30C4E902009DF8000000F09CF83A
:101080002146BDE8384001200BF0D8B89DF800009B
:1010900000F092F8002038BD70B50A4E01460A48AB
:1010A000B578FFF7BAFE04464DB10020B070711C50
:1010B0000122C81D05F056F908B1FFF7A3FE20462E
:1010C00070BD00007C03002028098000F0B5244E8C
:1010D00089B01F460D00044672603FD0A888296879
:1010E00082B22048FFF7A4FE002835D1A889A9685C
:1010F00082B21C481030FFF79BFE00282CD1202222
:1011000019496846FFF7CCF960690690207C00B168
:1011100001208DF814008DF81C70607C00B10E2049
:101120008DF81500E0680290A06803902068019097
:10113000606800900A480D4A6946083005F0DEF8FC
:10114000002809D1B0702068401C05D00449012254
:10115000491CC81D05F006F909B0F0BD0720FBE7E2
:101160007C0300202809800004D1000051C3000046
:1011700030B5EFF3108172B60D4A9468012324B1A3
:101180000370002900D162B630BD93604FF0E023B8
:10119000D3F88051074C25401560C3F88041D3F83F
:1011A000844154605A17C3F8842100220270E8E792
:1011B000A8050020FC06FFBD0B498A68002A11D053
:1011C00000280FD1EFF3108072B60B684FF0E022C9
:1011D000C2F800314B68C2F8043100228A6000284E
:1011E00000D162B670470000A80500202DE9F0414B
:1011F000064608680C46411C4FF0A0474FF0010519
:1012000006D005FA00F1C7F80815206805F07EFC45
:101210006068411C02D0002105F066FC3168A069BD
:10122000C1F82405607D227D31681043C1F86C054A
:10123000D4E900123068C0F81425C0F80C15207DE0
:10124000012815D1A068411C02D0002105F04CFCFA
:10125000E068411C05D08540C7F80855E06805F0F6
:1012600055FCD4E902123068C0F80825C0F8101502
:10127000BDE8F0812DE9F041064608680C46411CA6
:101280004FF0A0474FF0010506D005FA00F1C7F86E
:101290000815206805F044FC6068411C02D000215C
:1012A00005F02BFC3168A069C1F82405607D217D23
:1012B00032680843C2F86C05D4E900123068C0F8FF
:1012C0000C15C0F81425207D012815D1A068411CFB
:1012D00002D0002105F011FCE068411C05D08540DA
:1012E000C7F80855E06805F01BFCD4E90212306825
:1012F000C0F80825C0F81015BDE8F08104F0B0B9B9
:1013000006F0CEB92DE9F047814605884A484FF0EE
:1013100000088AB001784246284600F0A9FD99F8F5
:101320000500400701D4002176E005F58077B8B2CA
:1013300005AB0122072107F00DFE04003F48404A9B
:101340004FF00101A0EB02004FEAD00001EB004694
:101350000AD0204606F056FA024630462B46394956
:1013600005F03DFE214629E0284603F05FFE4FF6DA
:10137000FF71044688422BD18A46069803F0C0FDCF
:101380000446504510D00146284603F02FFE28465B
:10139000FFF79EFCE0B928460AF0C0F82846FFF7A0
:1013A00097FC0028BFD013E007F0AAFF0446504581
:1013B00008D1304624A105F007FE042128460AF092
:1013C0001BF9B0E70146284603F010FE4FF0010874
:1013D000B8B22246072107F035FE07001BD0862F42
:1013E0001ED006F00FFA024630462B4623490094E1
:1013F00005F0FDFD394628460AF0FEF80021484672
:1014000007F0A0FCB8F1000F02D0204603F0F8FD71
:101410000AB0BDE8F0870121484607F093FCF7E7E2
:10142000142217496846FFF73BF8ADF802506846AA
:1014300002F02EFCEFE700008400800040EB00008B
:1014400000EB0000C8DF0000436F756C64206E6F16
:101450007420616C6C6F63617465206E65772070B9
:101460006565725F696420666F7220696E636F6D77
:10147000696E6720626F6E642E000000E4E0000079
:1014800088D0000070B5044690B0087B0D468DF8FA
:101490003800202105A8FFF71CF842F61920ADF806
:1014A00014000120ADF81800ADF81A000EA807903E
:1014B000617C9DF82100A21D61F3041040F0020040
:1014C0008DF82100A87B8DF82700687B8DF825001A
:1014D000A08805A901F05CFE00281CD1A968E1B133
:1014E0000FA801F0E5F9064614216846FEF7F1FF62
:1014F00042F60810ADF80000E87B8DF806000FA852
:10150000ADF80A60ADF80E600490E08804F10E02B8
:10151000694602F05FF810B070BD0020E081FAE784
:1015200010B50E490E480AF0A2F8C1B24FF6FE728D
:101530000C4800F02DFB00280FD011280DD01328E7
:101540000BD00F2809D0082807D043F20141884268
:1015500003D0BDE81040FFF755BC10BD5405800016
:101560003C0000202C0480000A4601461046AEDFF5
:10157000704770B51500044609D00020286034B1CA
:10158000206820B1A079800703D0072070BD0E200D
:1015900070BD084600F0DEFBC0B2142804D02179EB
:1015A000814203D8042070BD052070BDE288216807
:1015B00000FB02102860002070BD2DE9FC470025CB
:1015C00017880646158090F82D001446894630B1DC
:1015D0003A462146484600F071FC051E09D1B07814
:1015E0004FF00C0A18B32088C846001DB84202D933
:1015F0005046BDE8FC87684679DF0028F9D120888D
:10160000032108F8001020881921401C80B2208096
:1016100008F800102088401C80B2208000EB0801F0
:10162000BDF800000BF063F8218808442080F078B2
:101630000222C8B1218896F9033001F1030C484613
:10164000BC45D5D8425421884FF0010C491C89B2C1
:10165000218000F801C02188491C89B2218009F845
:1016600001302088401C20807068B8B1218890F932
:10167000003001F1030C4846BC45B9D842542188DA
:101680000A22491C89B2218042542188491C89B20E
:10169000218009F801302088401C2080308950B119
:1016A000CDE900474B460622022106F108000BF067
:1016B0000DF9051E9DD1308A50B1CDE900474B464A
:1016C0000722032106F110000BF000F9051E90D14E
:1016D000308B50B1CDE900474B461522142106F15D
:1016E00018000BF0F3F8051E83D1306A30B13B4689
:1016F0002246494601F081FE051EDBD1706A30B1F9
:101700003B462246494604F0E8F9051ED2D196F838
:101710002C0038B13B462246494630460AF0DCF8F8
:10172000051EC7D1307838B13B462246494630467F
:1017300004F060FA051EBDD128465AE718B50446E4
:101740000020ADF8000013466A46204600F006F877
:10175000002802D0BDF80000204418BD70B5E0B1EB
:10176000DAB1002402E0045D2C44A4B2651C8D4271
:1017700006D21688A642F6D8061976789E42F2D18D
:101780008C420AD2A31C005D9BB200B1401E000433
:10179000000C02D01C188C4201D9002070BD1380AF
:1017A00070BD80F830107047FFF72CBB2DE9F04179
:1017B0000D00044606D02CB195F87A0000260128C9
:1017C00003D006E00E20BDE8F08195F898000128CE
:1017D00029D0D5F8A000042825D0D5F89C000428ED
:1017E00021D04FF00108A6702C2205F17801201DB0
:1017F000FEF756FE84F83060D5F8A4006063D5F893
:10180000A800A0634FF6FF70A4F8E80004F1D4002C
:10181000C4F8E400C4F8EA60A4F8EE6084F8F0606C
:10182000207810B104E00720CDE7FF2084F85400B1
:1018300004F155072046C4F8D470FFF78EF9A4F8D8
:10184000D80004F1D80239462846FFF7B6FE002832
:10185000B9D104F19300C4F8DC002046FFF77DF90C
:10186000A4F8E00004F1E00205F13C00D4F8DC103B
:10187000FFF7A3FE0028A6D184F85180208BA4F89E
:10188000480084F83C80266484F850606069002138
:101890006064454604F13C02781E72DF002892D154
:1018A000257090E710B50288102A1BD0112A20D08D
:1018B000262A1DD1007A0C46012801D0022817D112
:1018C000A0780521401CB0FBF1F201FB120120467B
:1018D00000F04BF800280BD0A16B002908D0BDE820
:1018E00010400847C27B012A02D18088A1F8E80095
:1018F00010BD0C46002184F8F2108088B4F8E8107E
:101900008842F5D120790028F2D10121DFE790F853
:10191000F1205AB1002280F8F1200A6840F8EA2F3D
:101920008A888280897981710020704708207047F9
:1019300010B5044690F8540074DF012084F8F200DA
:10194000002084F8F40084F850000621204602F0BC
:10195000EFFB002808D1A178204600F006F810B16E
:10196000A16B01B18847002010BD2DE9F05F04464E
:1019700000780F4698B1A7700025C4F8EA50A4F883
:10198000EE5084F8F050A079012608B1012F09D05B
:10199000E07980B1012F05D0022F03D00BE00820A1
:1019A000BDE8F09F616B21B184F8F16008208847A1
:1019B00001E084F8F15004F1EB0100200A5C0AB167
:1019C000304603E0401C0628F8D300204FF0020800
:1019D0004FF0030A4FF0040B012F06D0022F0CD05A
:1019E000032F0FD0042F15D110E0A17929B194F85D
:1019F000241011B908B130460DE0E17911B108B1F8
:101A0000404608E0207A08B1504604E0607A08B108
:101A1000584600E02846A070616B41B1032801D010
:101A2000042804D1607910B194F8F20098B184F8D8
:101A3000F35004F13C0018210746FEF74AFD84F8F4
:101A40003C6004F12C0007F0EFFD58B194F82C0035
:101A500084F8510008E084F8F45084F8F36007201B
:101A60008847E6E784F8516094F8240058B104F1FF
:101A7000280007F0D9FD20B194F8280084F852001E
:101A800001E084F8526084F85050A27804F1EA0131
:101A900004F1D409052A4DD2DFE802F065030F1BDB
:101AA000320084F83160C4F8E450C4E9101584F8B9
:101AB0003C808020A4F848003EE084F8318087F81C
:101AC00000A0228ABA81C4F8E4507960E168B96064
:101AD00032E06069B860208BB8813D4684F83C6094
:101AE00020460AF0BFFE40B185F81480042120464C
:101AF00002F01EFBF0B9052115E084F831A017E0D3
:101B0000E069B860208CB8813D4684F83C6020468E
:101B10000AF0A8FE50B185F814800421204602F096
:101B200007FB38B9062184F8311001E084F831B0A0
:101B3000C4F8E490A07878B13A4604F15400D4F89F
:101B4000E41072DF00287FF42BAF94F8301094F883
:101B5000540073DF0028F6D1616B11B194F83100A5
:101B6000884700201CE784F83150F5E790F8F330FF
:101B7000009933B1002380F8F3300A4303D00121E8
:101B800002E008207047002180F8F4100020704720
:101B9000F7B594B0174605003CD0287C9DF854104A
:101BA0000024884252D000264FF0010E0D9615A851
:101BB000ADF834E00E90ADF83660E9880DAA4FF626
:101BC000FF70ACDF040026D19DF854002874687CB7
:101BD000A0B30F96109611961296E888ADF83C00C7
:101BE000BDF83600ADF840000DA811900E98129087
:101BF000A7F57F408DF83EE0FE3805D039460FA8A6
:101C0000FFF7B2FC044621E0684600F09DF800258D
:101C10006F460FE00E2017B0F0BD00BF07EB450682
:101C2000B08800F0EFF8022803D144B10FA9B088C2
:101C3000AEDF6D1C0098A842F0D807E005E0B1883F
:101C40000FA8FFF791FC0446F3E708242046E2E7DB
:101C500038B50D46040018D0BDB128682060287939
:101C60006074FF20207401208DF8020041F60F00FF
:101C7000ADF80000221D69460120A8DF002803D12D
:101C800029462046FFF7FEFB38BD0E2038BD38B58B
:101C9000002924D0002822D00288502A1FD10546CE
:101CA000487C0C4600281AD0E9886289A81D914218
:101CB00015D14189022912D1216800290FD00C3099
:101CC00000F0F2FD08B1002000E001208DF80000D6
:101CD000A888ADF80200226869462046904738BDC2
:101CE00070B5040012D001461C221448FEF7D8FB40
:101CF0001248134D0560206850B17ADF002806D1E4
:101D00002068016829604068686005E00E2070BDA9
:101D10000B487BDF0028FAD108484FF6FF711438D2
:101D2000084A20F8041B0549343901600021FFF7F7
:101D300029F90028EBD0032070BD0000DC058000ED
:101D400058020020FDC700000149496801F036BB78
:101D5000F805800010B5044600F0A6F808B120464A
:101D600010BD142010BD000010B5044600F09CF812
:101D7000002805D02146BDE81040024804F0CDB847
:101D800010BD00000806800070B515460E460446DA
:101D90000AF074FD002809D0054800EB8400C069F2
:101DA0002A463146BDE8704002F0EEB970BD000031
:101DB000F805800010B5044600F076F8002805D03C
:101DC0002146BDE81040024804F0A7B810BD00004D
:101DD0001006800010B5044600F066F8002805D013
:101DE0002146BDE81040024804F097B810BD00003D
:101DF0000C06800010B5002400F056F800B1012454
:101E0000204610BD70B50546002400F04DF838B1ED
:101E10002946044804F081F808B1022400E00124B6
:101E2000204670BD0006800010B51821034804F05C
:101E30004FF8182800D0C0B210BD0000F80580008F
:101E400070B505460C4608460AF018FD60B12846F4
:101E500000F02AF840B10548294600EB8400BDE8AF
:101E600070401C3004F059B8002070BDF8058000A7
:101E700070B5054616460C4608460AF0FFFC0028D9
:101E80000ED0284600F010F8002809D00548324648
:101E900000EB84002946BDE870401C3002F043B9D5
:101EA00070BD0000F8058000142801D300207047A1
:101EB0000146014804F031B8FC0580007CB50546B8
:101EC00008880C460930904201D90C207CBD684638
:101ED0006DDF0028FAD121880820685420881B2152
:101EE000401C80B2208029542088401C80B2208071
:101EF0002844DDF801100160BDF8051081802088BC
:101F0000801D80B220809DF80010490800D001217A
:101F100029542088401C208000207CBD1FB5044629
:101F200001208DF8060041F60A00ADF80400494A88
:101F300001A90120A8DF00287ED122885AB1454896
:101F4000801C009094F83C3042F62920616801F032
:101F5000EFF800287CD122895AB13E480A3000901F
:101F600094F83C3042F62420E16801F0E1F80028C2
:101F70006ED1228A5AB137481230009094F83C3022
:101F800042F62520616901F0D3F8002860D1228B48
:101F90005AB130481A30009094F83C3042F627206D
:101FA000E16901F0C5F8002852D1228C5AB12948C4
:101FB0002230009094F83C3042F62620616A01F00D
:101FC000B7F8002844D1228D5AB122482A30009017
:101FD00094F83C3042F62820E16A01F0A9F8002884
:101FE00036D1216B79B102A80AF06EF8194808229F
:101FF0003230009094F83C3002A942F6232001F0E0
:1020000097F8002824D1606B60B112493A310091F1
:102010000279016894F83C3042F62A2001F088F8F1
:10202000002815D1A06B90B1014602A808F0EEFA85
:1020300008484230009000E00AE094F83C30072263
:1020400002A942F6502001F073F8002800D10020C8
:1020500004B010BDF6020020F8B5018804463B2903
:1020600046D01ADC2648274A274DA0EB02004FEA4B
:10207000D0004FF0030202EB0040102916D00026DA
:10208000112927D0212907D10096A08869468FDF22
:10209000002801D0FEF7B6FEF8BD56292CD05729EE
:1020A000FAD1BDE8F840012000F04CBF17A104F0C0
:1020B0008BFF072000F0A6FD08B1FEF7A3FEA18864
:1020C000A980154804F058F80028E5D0BDE8F8408C
:1020D000FEF798BE11A104F077FF002000F032FF58
:1020E0004FF6FF70A8806E70112000F08BFDEBE7BB
:1020F0008088132176DFE7E78088132176DFE3E726
:10210000B0EB000000EB000000000020436F6E6E9B
:102110006563746564000000500480004469736363
:102120006F6E6E65637465640000000010B51A4C34
:102130000188606810290ED011292BD1401E6060E3
:1021400028D1FEF70EFD002824D02168002921D0D7
:10215000BDE810400847D0B900210122084600F030
:102160002FFD08B107280FD107220221012000F01E
:1021700027FD08B1072807D104220221002000F022
:102180001FFD20B1072802D0216801B1884760688F
:10219000401C606010BD0000580080002DE9F04731
:1021A00001883B4E40F2F3194FF6FF7510291BD002
:1021B00011293ED0122954D0502946D1C188F28924
:1021C000841D914241D1618902293ED186883046E1
:1021D00003F064F8050038D004F10C0000F064FB53
:1021E000A8B3294630464EE0C17B878804460129C2
:1021F0002BD1A846284603F051F8050017D02F80B0
:1022000000202872234843464A460168C5F80A1050
:102210004068C5F80E0004F1100105F10A0003F052
:1022200001F96872F08900280FD129462AE00420BC
:1022300013E0808803F032F8040006D06068FEF7EF
:1022400009FF08B109F07CF92580BDE8F087FFE7B8
:102250006868FEF7FFFE0028F7D0BDE8F04709F0F8
:102260006FB987880646384603F018F80400ECD0AA
:102270002B464A4606F1080104F10A0003F0D2F8A1
:10228000607221463846BDE8F04701F0FDB8000015
:10229000DC058000580200202DE9F047028886887E
:1022A000DFF8F8A098B0102A0DD0112A46D00AF114
:1022B0001003192A61D01A2A6CD1007A0409042C5F
:1022C00043D3012242E0354C083CA068C0430B9048
:1022D00061680BA803F045FE0B990CA801F06EF89D
:1022E0002C220CA96846FEF7DBF80027E8460FE031
:1022F00008EB47005FF00005B0F8049004EB8500A0
:102300004946001D03F0C9FD6D1C1E2DF6D37F1C30
:102310000098B842ECD8142E05D318B00420BDE8BC
:10232000F047FEF76FBD3146504603F001FE18B08E
:102330003146201DBDE8F04703F0FABD18B0314624
:102340005046BDE8F04703F0A8BD002231461846CC
:1023500001F0E9FE032C01D3012200E000220F4826
:1023600031460C3001F0DFFE022C01D3012200E0E7
:1023700000220A483146083007E0017A002909D1D5
:10238000407A3146C0F3C002184618B0BDE8F047A5
:1023900001F0C9BE18B0BDE8F0870000000680005B
:1023A00070B51F4E044686B07078002836D020885D
:1023B000A588102811D031782846FFF741FD002864
:1023C0002CD1204602F098FC204609F04DFB06B0C7
:1023D0002046BDE8704002F02BB800208DF80000C8
:1023E000142101A8FEF775F801208DF804004FF6BE
:1023F000FF70ADF8080004F108000390ADF8065036
:10240000CDF810D001A801F02DFC9DF80020317806
:102410002846FFF72DFD9DF80000D0E706B070BDFF
:1024200070020020F0B587B016460C4605001F4626
:1024300035D09EB3A7F57F40FF3832D0ADF81440B9
:1024400004AA1946D5F87801FFF793F8002823D19C
:102450000498801C0490082C03D822463146FEF7CD
:102460001FF800200090019002900390B5F84E11E3
:10247000ADF8040005A8ADF80010CDE90206012171
:102480008DF8021069463846AEDF002804D1029963
:102490000988A14200D00C2007B0F0BDFFE70E2054
:1024A000FAE70820F8E72DE9F04391B00C46050063
:1024B0000DD064B1A07A0A2805D8207C0A2802D859
:1024C000207E0A2805D9072011B0BDE8F0830E2030
:1024D000FAE72068286060686860A07AA874207CA9
:1024E00085F87800207E85F8DE0001268DF82260D0
:1024F00041F61200ADF8200005F1080208A93046A7
:10250000A8DF0028E0D1002709E0A06B01AA30F87D
:1025100017102889A9DF0028D6D17F1CFFB294F8B4
:102520003600B842F1D8207A4FF0000808B9607A36
:1025300038B394F83C9094F83D708DF830602021C9
:102540006846FDF7C6FF42F64E20ADF800000CA825
:1025500002909DF80D00ADF8046040F006008DF883
:102560000D008DF81190ADF806608DF812708DF8A1
:102570000F60288905F10A02694600F009FE00286B
:10258000A2D12146284602F053FE00289CD1207C8F
:1025900018B3606908B300271CE06069CDF81080AB
:1025A00000EBC7039DF8100007EB870140F00E0019
:1025B0008DF8100005EB4100191D7A30CDE90010AF
:1025C00033F8022B04A9284608F0A6FB002899D16D
:1025D0007F1CFFB2207CB842DFD8207E18B3E069B0
:1025E00008B300271CE0E069CDF80C8000EBC703BE
:1025F0009DF80C0007EB870140F00A008DF80C00F5
:1026000005EB4100191DE030CDE9001033F8022B35
:1026100003A9284608F080FB0028B1D17F1CFFB237
:10262000207EB842DFD82146284608F0C2FB0028A9
:10263000A6D1207A70B305F5A770009004F142038B
:10264000082242F62221284600F038F9002897D1C6
:1026500020216846FDF73DFF42F63220ADF800002C
:102660009DF80D00ADF8046040F00E008DF80D00EF
:1026700094F845008DF8110094F846008DF812008A
:102680008DF80F60288905F5AB72694600F080FD72
:1026900000289CD1607A60B105F5AF70009004F11C
:1026A0003F03082242F63321284600F007F90028AC
:1026B0008DD12146284602F024FA002887D194F8CB
:1026C0003E708DF80880202109A8FDF702FF42F630
:1026D0004C20ADF824009DF83100ADF8286040F0A2
:1026E00004008DF8310002A88DF83670ADF82A602C
:1026F0000B90288905F5B77209A900F049FD00285B
:102700008BD1E168C5F87C116169C5F88011E16978
:10271000C5F88411D8E600002DE9F04786B0984648
:10272000DDF838A016460F4604001ED0B8F1000FA1
:102730001BD0A07CB8424FD907EB870004EB4000C8
:10274000AAF57F4100F11409FF3943D0ADF81460B8
:10275000002504AA5146D4F87801FEF70AFF0028A4
:1027600004D10498133004900BE00E2006B0BDE8AD
:10277000F08700BF30F8350004996D1C0844EDB2B5
:102780000490D4F87C01BD42F4D330F83700B04255
:102790001ED3324641460498FDF782FE0020009089
:1027A000019002900390B9F80010ADF8040005A85C
:1027B000ADF80010CDE9020801218DF8021069463C
:1027C0005046AEDF0028D1D102990988B142CDD060
:1027D0000C20CBE70820C9E70720C7E70A460146D7
:1027E00010460A88102A05D0502A05D0512A05D152
:1027F00006F018B805F0DCBD06F07BB870470000A5
:102800002DE9F8430D46DDE908171E469046040001
:1028100007D037B194F87800A84204D80720BDE863
:10282000F8830E20FBE76A46D4F87801FEF7A1FE94
:102830000028F4D1009813300090002009E000BF78
:10284000D4F87C11009A31F83010401C1144C0B209
:102850000091A17C8142F3D8002008E0D4F88011D7
:10286000009A31F83010401C1144C0B20091A842C7
:10287000F4D3D4F8800130F8351008EB060081421B
:1028800007D30098424681193846FDF709FE00201B
:10289000C5E70920C3E770B504460D460846FDF7B5
:1028A00023FE2080656070BD007800F00100704755
:1028B0000A78027049784170022070472DE9F04192
:1028C00088B00F4605461C46164620216846DDF8AE
:1028D0003880FDF7FEFD9DF80D00ADF8007040F06A
:1028E0000201ADF804608DF80D10607810B141F070
:1028F000080101E021F0080141F010008DF80D0001
:1029000020788DF8110060788DF81200A0788DF88D
:10291000130001208DF80F0028894246694600F017
:1029200037FC08B0BDE8F0810149085C7047000041
:1029300028CF00000649095C4FF0A040D0F81005F0
:10294000C84010F0010000D0012080F00100704765
:1029500028CF00002DE9FC410646C0074FF00005D6
:102960000ED0104F00240122385D0095002311463F
:10297000019504F05FF8641C042CF4D300F046F8D1
:10298000B0070DD5074E0024361D0022305D03230D
:1029900000951146019504F04DF8641C042CF4D305
:1029A000BDE8FC8124CF000007490B5C4FF0A0413B
:1029B000D1F804250120984020EA0203C1F8083527
:1029C0001040C1F80C05704724CF00000249085C94
:1029D000012104F0E6B8000024CF00000249085CA1
:1029E000002104F0DEB8000024CF00000649095C95
:1029F0004FF0A040D0F80405C84010F0010000D00E
:102A0000012080F00100704724CF000010B50024A1
:102A10002046FFF7DBFF641C042CF9D310BD10B572
:102A200000242046FFF7DAFF641C042CF9D310BD04
:102A300010B50246064B4FF0FF3000215C5C94421B
:102A400001D1084610BD491C0429F7D310BD000070
:102A500028CF000070B50C4E0C004FF00005306020
:102A60000BD0012000F06AF808B1022004E0002039
:102A700000F064F800B10B202070706810B9FEF708
:102A800070F80546284670BD5800800010B500203B
:102A900000F0F2F908B1062806D1012000F0ECF9A7
:102AA00008B1062800D1002010BD00002DE9F04734
:102AB0000D468146FFF7BCFF0446042836D2DFF8F6
:102AC00074801B481C4EA8F10C0725B3012D0ED0B5
:102AD000022D2BD104EB440030444578002D25D045
:102AE000B968002922D02846BDE8F047084704EB22
:102AF0004401755C0E44717849B10E4A4FF480412F
:102B0000093A8068FEF77CFA08B987F80390B17833
:102B100008F80410E2E78068FEF79CFA04EB440131
:102B2000314418F804008D78A842D7D0BDE8F0876A
:102B30002CCF00003400800034040020042801D28F
:102B4000FFF7F8BE0020704710B51B4C0246042A60
:102B5000A08820D04FF6FF71072A25D00A2A16D068
:102B60000E2A13D1884211D00120E16802F08CFCBA
:102B7000E068401CE060A078401CC0B2A07006284D
:102B800004D104F11000E0600020A07010BDBDE889
:102B9000104008F055BF132176DF0AE00028F5D079
:102BA000BDE81040FEF72EB98842EFD10348FEF78A
:102BB000BFFE0828F2D110BD000000205C04800098
:102BC00070B50023042810D20D4D00EB4004012AFB
:102BD00002D101290CD00022094E00EB4000304404
:102BE00061B1012906D0022906D00723184670BD1D
:102BF0000E30C2B22A55F9E74270F7E78270F5E766
:102C000034040020044A014600201279D20702D081
:102C1000084600F04DB870472800800070B50646A1
:102C20001E480024C0E90161B00720D5002501221B
:102C300011462846FFF7C4FF6D1C0446042D02D23E
:102C4000002CF4D013E094B940F23332042114483C
:102C5000FEF756F804000AD1FEF740F8040006D14A
:102C60000F48104A0021001FFEF78CF90446F007B8
:102C700012D00120FFF76EFE74B909480A4A0021FC
:102C80000C38FEF77FF9040006D10548074A0121F8
:102C90000838FEF777F90446204670BD280080000A
:102CA00038CF00004D30000005550000CB0C00006F
:102CB0002DE9F05F6E4C054600266078B34618B1EA
:102CC00084F801B002F006FC6A4F4FF47A694FF4C1
:102CD000C87A4FF00108182D69D2DFE805F00C130F
:102CE00013384754696E727B727BC58484848484F4
:102CF000B3B6B9BCC5C502F0EDFB3868FEF7AAF95A
:102D000006465CE00020FFF771FE00284FF000004F
:102D100008D0FFF75BFE022D02D14FF4E16008E01E
:102D2000484606E0FFF75AFE022D01D1C82000E018
:102D30005046410CC0034FF47A72801841F10001F3
:102D4000257052000023FDF767FB01462AE00020B2
:102D5000FFF74CFE00284FF0000004D0FFF736FECE
:102D60004FF44870E5E7FFF739FEDFE70020FFF793
:102D70003DFE00284FF0000002D0FFF727FECFE70E
:102D8000FFF72CFED4E70020FFF730FE00284FF0BD
:102D9000000002D0FFF71AFE01E0FFF71FFE2570CA
:102DA00040F6CD4100223868FEF72AF9064646E093
:102DB0000020FFF7F9FD257008E0002051E02570A4
:102DC0003DE084F801800120FFF7EEFD002240F293
:102DD0006661E8E784F801800120FFF7E5FD002245
:102DE0004FF40051DFE77868FEF734F90646D5F175
:102DF000110000D02EB10220FFF7E8FD84F802B0E8
:102E00001DE0012816D980B2C8214843C117C90363
:102E100041EA5041C0034FF47A72801841F1000139
:102E200052000023FDF7F8FA014600227868FEF709
:102E3000E7F806460220FFF7D1FD84F8028030460D
:102E4000BDE8F09F02F046FBB9E702F043FBB4E7B0
:102E500002F040FB04E002F03DFB0020FFF7BEFD66
:102E60000120FFF7BBFDAAE7FFF7D9FDA7E70000A8
:102E7000280080002CCF0000012109F08EBD000049
:102E80002DE9F84F0546861C00208DF8000091467C
:102E90000F464FF0010A6846FEF76AF91B4C04F230
:102EA0001C4860683860D4E90101194F401A39683C
:102EB000081A0EE00121404603F04DF802F0B8FC7C
:102EC0000146404603F047F8D4E90101401A396849
:102ED000081A401C8642EDD8B9F1000F03D0052036
:102EE00065F3891002E0062065F39F5061683A6837
:102EF000114004EB8101C8606068304460609DF857
:102F00000000FEF759F95046BDE8F88F100B80001D
:102F1000EC00800070B50D4604460A2902D10D214F
:102F2000FFF7F8FFA0682268411CA1601554D4E99E
:102F30000101814204D32046BDE8704003F03FBA4E
:102F400070BD00007CB51C4C0146002094F83E206A
:102F50008AB194F83C2002EB420204EB820599B15D
:102F600001A80090D5E901102B786A7808F0F0FAF2
:102F7000132802D008E005207CBD6A78BDF8041053
:102F80008A4201D329707CBD94F83C20002102EBD9
:102F9000420204EB8202516094F83C20521CD2B2EF
:102FA00084F83C2094F83E305B1E84F83E30052ABD
:102FB000E9D184F83C107CBD6405800070B5124CEA
:102FC0000646002094F83E50062D1AD094F83D5045
:102FD00005EB450504EB8505C5E901162B706A7004
:102FE00094F83E10491C84F83E1094F83D10491C9A
:102FF000C9B284F83D10052902D1002184F83D10A2
:1030000070BD042070BD0000640580000448816824
:103010004068814201D101207047002070470000C4
:10302000100B8000034630B5074800210478426841
:1030300006E000BF02EBC10005789D4203D0491CA9
:10304000A142F7DB002030BDA00080000078022103
:10305000FFF72CBD1CB5044601F0E8FF00236A46CB
:10306000092106F0B9F8052805D103480122417964
:103070002046FEF7FDFE1CBD600080001CB5044626
:103080000020009042F6A620ADF8000001208DF847
:103090000200084801AA6946006801902046A0DFA6
:1030A000002805D10448012281792046FEF7E0FE80
:1030B0001CBD000058CF00006000800005494FF0A3
:1030C000FF32082841F8202002D3084480F8482025
:1030D0007047000088088000F0B54FF0FF3512B14E
:1030E0000023082601E008230C260C4C05E000BF55
:1030F00054F823707F1C04D05B1CB342F8D32846DD
:10310000F0BD26185DB286F8305044F82310002A2E
:10311000F5D1E11881F84800F1E700008808800047
:103120000249084490F93000704700008808800088
:103130002DE9F04188B01E46DDF8388014460D00B8
:10314000074602D10020FDF75DFE14B90020FDF70F
:1031500059FE20216846FDF7BCF99DF80D00ADF839
:10316000044040F002008DF80D000848ADF80070F2
:10317000ADF8064002958DF8116042466946008818
:1031800000F006F808B0BDE8F0810000F60200206B
:103190002DE9F0438146887891B090460C4600B9FD
:1031A00001208DF83E002088ADF83C0000250095F8
:1031B000607C694608F02CFC6E46A07C711C08F00F
:1031C00027FCE07B00289DF8020002D040F00800B8
:1031D00001E020F008008DF80200217C11B140F0E0
:1031E000100001E020F010008DF80200217B11B1E9
:1031F00040F0010001E020F001008DF80200217D87
:1032000009B1022100E0012161F342008DF80200C2
:103210001C2102A8FDF75DF9607BC10601D4800680
:1032200017D50E950EAFE07C791C08F0F1FB9DF8E8
:103230003800079720F00F00401C20F0F0001030FD
:103240008DF838009DF83A0020F00600801C8DF8BB
:103250003A00607B8DF80800A07B8DF809001421EE
:1032600009A8FDF736F90FA8CDE90906A088ADF841
:103270003000A06820B1E088ADF82C00A0680D9067
:10328000A06998B301950088ADF81000A06901AD60
:1032900001A94088ADF81200A06940680695039026
:1032A000A069007B08F0B4FBA069691C407B08F0B2
:1032B000AFFBA069807A00289DF8060002D040F09C
:1032C000080001E020F008008DF80600A169C97A25
:1032D00011B140F0100001E020F010008DF8060060
:1032E000A169097A19B140F0010002E00DE020F077
:1032F00001008DF80600A169897B09B1022100E077
:10330000012161F342008DF80600E06900B10590EB
:10331000434609AA02A94846AADF11B0BDE8F083D6
:1033200070B504464FF6FF750A462846AC4209D1EF
:103330004FF480742146104602F0CAFD80B2A042CC
:103340000BD070BDFF2CFCD82146104602F0B0FD1A
:1033500090F0010F01D0204670BD284670BD0000DE
:1033600070B5084C050009D010342168002907D039
:1033700008682060496828468847F6E70834F4E77B
:1033800070BD000074088000054A012120B10128A9
:1033900005D19170FFF7E4BF51700020FAE7704744
:1033A0007408800010B5D0E90234D1E90220D11AA6
:1033B000A04101D3012010BD002010BD73B58CB019
:1033C0000646002000900D9880B100246D462146ED
:1033D0000DA802F0A2FD30B1009805EB40008480FA
:1033E0000098401C0090641C142CF0D32C226946D9
:1033F0003046FDF755F80EB070BD2DE9F041178845
:103400000646B81D14460D46984202D90C20BDE868
:10341000F0813188072206290AD34FF4486C4FF611
:10342000FF73614501D9994202D17088062801D203
:103430001046ECE7604501D99842F9D1994203D092
:10344000984201D08142F3D80520E8552088122106
:10345000401C80B2208029542088401C80B22080EB
:103460004119308809F043F92188084480B220804E
:103470004119708809F03BF9218808442080002018
:10348000C5E7FDF7BFBC000038B54A7A0F4B62B103
:1034900000220A725969002906D001228DF8002005
:1034A000ADF802006846884738BD0A7A62B19B6869
:1034B0004C68024619462046FDF7A2FD0028F3D0CD
:1034C000BDE8384008F03CB85B68F1E7DC058000F7
:1034D000F0B585B016460F4604461D4614220B492A
:1034E0006846FCF7DDFF0A488DF80870ADF8024029
:1034F000ADF80A608DF80C50017800222046FEF7E6
:10350000B7FC684600F0C4FB05B0F0BD9CD00000DD
:1035100084008000FDF75EBA70B5044609480121B9
:1035200002F034FDBFF35F8F0025002808D120464C
:1035300002F0F2F8002803D1BFF35F8F0148056065
:1035400070BD00006C0080002DE9FF410C4620B1E9
:103550004FF4064004B0BDE8F0812079002748F21E
:10356000096538B141F61D5601281BD0022826D026
:10357000681DEFE70220207102970397E068019031
:10358000694601A807F0E0FA50B102988188E1800D
:1035900000882081BDF80010029807F053FBD9E79E
:1035A0002846D7E70A4B6A460021A01D07F084FA97
:1035B00038B1074918398F61CF61A842CAD1304666
:1035C000C8E703488188019807F03CFBF5E7000055
:1035D000B0030020F0B587B00C460746164614210C
:1035E00001A8FCF776FFA07800B901208DF81A0039
:1035F0002088ADF8180006A80190A079694608F067
:1036000007FA6D46E079691C08F002FAE0780028B4
:103610009DF8020002D040F0080001E020F0080010
:103620008DF80200217911B140F0100001E020F086
:1036300010008DF80200617911B140F0010001E045
:1036400020F001008DF80200217A09B1022100E08A
:10365000012161F342008DF8020002956089ADF806
:103660000C00A089ADF80E00E089ADF810002069CB
:103670000590324601A93846ABDF07B0F0BD000027
:1036800070B500240F4D10E0686800EBC406307878
:1036900004F0E2F97178012901D0012100E0002154
:1036A0004140307800F048FA641C28788442EBDB13
:1036B000D5E90401084303D0BDE8704008F0DABD45
:1036C00070BD0000A000800010B50021024802F08B
:1036D0005DFC80F3100010BD2C0F80004FF4803291
:1036E0008A400168C1F848230068C0F80823704781
:1036F0004FF4A07202EB810189B200F08DBA2DE97E
:10370000F04105460E464FF4A07000EB860081B2F2
:1037100028684FF48034B440984622F07F47C0F8C0
:1037200008432868C0F84843286803F003FE286867
:1037300000EB8600C0F840752868C0F84443B8F133
:10374000000F02D02868C0F80443BDE8F08100688B
:10375000D0F804057047000070B54379234C44F855
:1037600023204279231D03EBC202224C1579204A03
:10377000121BD4082DB10825022000EB04401EA125
:1037800030E005680A88C5F8082590F90420897892
:10379000002A4FEA411104DB02F1E02282F8001412
:1037A00005E002F00F0202F1E02282F8141D90F908
:1037B00004100122002909DB01F01F0502FA05F5BA
:1037C0004909890001F1E021C1F800514179002542
:1037D00003EBC1010A71417943F83100032000EB8A
:1037E00004400EA103F0F0FB284670BDD800800015
:1037F00090EB000000EB000052544320696E73749C
:10380000616E636520616C726561647920696E69BF
:103810007469616C697A65642E0000005254433A01
:1038200020696E697469616C697A65642E000000B4
:1038300090F90400002809DB00F01F0201219140EB
:103840004009800000F1E020C0F8001270470A46ED
:10385000022100F067B94FF4827100F0DDB9006811
:1038600001210160704700680121416070472DE926
:10387000F05F07460C464FF4A07000EB84001FFA7F
:1038800080FA38684FF48036A6409B4622F07F4588
:10389000C0F848633868C0F808633868D0F8048511
:1038A00000EB8402D2F84095C2F840855146386852
:1038B00003F040FDA9EB080020F07F40012806D16D
:1038C000102004F00BF85146386803F033FD3868D7
:1038D000D0F80485C0F84463A5EB080121F07F41CE
:1038E0003868012900EB840010D0C0F840553868D2
:1038F000D0F804156FF07F4C6A1A521E22F07F42F6
:10390000ACEB0B03934217D362B118E06D1CC0F807
:103910004055102003F0E2FF3868D0F80405404518
:103920000AD10CE000EB84006D1CC0F840553868EB
:10393000D0F80405884202D00D20BDE8F09F012296
:103940003146384600F0EEF80020F6E713460A4606
:103950000021FFF7BDBD00002DE9F843104D0F46D3
:1039600080461E4691466946286802F06AFA0400BD
:1039700014D01C21FCF7ADFD01202071C4F8149077
:10398000380BC4F80080C4E902606946286802F078
:1039900079FA06F0FDFF0020BDE8F8830420FBE77C
:1039A000C0D1000010B503780022072B06D2DFE853
:1039B00003F005040610202930000A7010BD012311
:1039C0000B7003898B818388CB81C06888600A74FF
:1039D00010BD02220A7002898A818288CA81C26867
:1039E0008A60807D062802D00020087410BD012066
:1039F000FBE703220A70C2888A810289CA81C068F3
:103A0000886010BD04230B70C0888881CA818A60D9
:103A100010BD0520087010BD70B5064D0646002487
:103A200055F8241009B130468847641C042CF7D39C
:103A300070BD00005409800030B50446006887B0AE
:103A40000D46806800281FD018216846FCF741FD0C
:103A50000195A0680590207910B1012810D107E0E8
:103A600001208DF8000020690290E068039005E0D5
:103A700002208DF80000E068000302906069049065
:103A8000206881686846884707B030BDF0B585B0CA
:103A900017460C0005463AD0112C38D0082C36D0E9
:103AA0001C481D49401AC6080D2C11D0204603F0B1
:103AB000A9FE0246012000EB06402B46174903F001
:103AC0008EFA2A460821684602F0F2F802941BE0BA
:103AD000022000EB06402A46114903F079FA2A46F3
:103AE0000421684602F0E4F827B13878C00701D015
:103AF000012000E002208DF8080000208DF80C0065
:103B000041F20110ADF80A00684600F0CFF805B0A8
:103B1000F0BD000048EB000000EB0000B0E2000048
:103B2000A0E100000368C3F84413002A02D0006833
:103B3000C0F80413704700002DE9F84F0E463449D1
:103B4000804601EB5001C007097801D00F0901E060
:103B500001F00F074FF00009424601204946FCF7EB
:103B60008CFCDFF8B0A004460D46052F4ED2DFE8EE
:103B700007F003161B282C00002E47D001214046D9
:103B800008F008FA8DF800906846FDF7F1FA504603
:103B9000D0E904120C431543CAE9044532E00EB1E2
:103BA000022114E0002112E04EB10321404608F04A
:103BB000F1F94046BDE8F84F012108F077BE012138
:103BC00005E0002E22D1042101E02EB10321404660
:103BD000BDE8F84F08F0DEB90021404608F0DAF9F8
:103BE0000021404608F062FE8DF800906846FDF71F
:103BF000BFFA5046E243D0E904341A4024EA0501F2
:103C0000CAE904219DF80000FDF7D6FABDE8F88F57
:103C100008098000A000800010B5006842581AB161
:103C200003F088FB012010BD002010BD10B5044634
:103C3000408801F0FBF9A080024801682046BDE8F9
:103C4000104008476800800010B50446808801F0E5
:103C5000C1F86080024801682046BDE8104008476E
:103C6000680200202DE9F04107460024064E074D6A
:103C700005E000BF56F8241038468847641C2879B0
:103C80008442F7DBBDE8F0811805002070020020B7
:103C900010B50446408801F0C9F9A08002480168C7
:103CA0002046BDE8104008475CD000000149096883
:103CB00008470000D8D0000070B586B00446142133
:103CC0006846FCF706FCA0890125A0F54040ADF848
:103CD000040020782F4E062833D2DFE800F03203AC
:103CE00003032C4AA08900F002FA30B9E08943F6B8
:103CF000FE71A0F54040884223D8A07B8DF80800D3
:103D0000207803280FD000208DF80900A0680390C8
:103D1000606850B10A208DF8000060680490684621
:103D200005F0ACF90DE00120EEE709208DF8000068
:103D30008DF81050F3E7A08900F0D9F908B1E089B7
:103D400030B17078002801D005F0EEFA06B070BDF1
:103D5000606830B10C208DF80000606802907570CA
:103D6000DDE70B208DF80000BDF8040005F080FBB6
:103D7000F5E7606848B115208DF800006068029092
:103D80004FF6FF70ADF80400C9E714208DF800006D
:103D9000F6E700007000800038B504460F48007850
:103DA000B0B1A4F57F40FF380FD0684606F020FD83
:103DB00088B10521017001210171C480684606F0B7
:103DC00025FD06F0D7FD002038BD48F2036038BD60
:103DD00048F2016038BD48F2076038BDB8030020E2
:103DE0000D4808B5007888B1684606F001FD80B13D
:103DF00006210170684606F009FD0848017809B1FE
:103E00000121017306F0B6FD002008BD48F20160F3
:103E100008BD48F2076008BDB8030020180A8000FA
:103E2000F0B587B014216846FCF753FB324C20787C
:103E300018B16846FFF7F0FD5BE0201D02F088F83E
:103E4000A8BB40F6F8700068411C02D14FF010206A
:103E500040694FF080510969421C02D101EB4100D9
:103E60000001264900220861A0F54050C86024499D
:103E7000224802F039FC002826D123481C238C223A
:103E80002049006801F0CAFF04F084FE05004FF0ED
:103E9000000615D0022D13D00127062D16D005A837
:103EA00006F0A6FCA8B107700C2D1DD200E020E0A2
:103EB000DFE805F01A121A121A191A191A14161430
:103EC0002670666048F20A6007B0F0BD2770666031
:103ED000AFE748F20760F7E7067105E0032100E06D
:103EE0000221017100E0077105A806F08FFC06F0C1
:103EF00041FD0020E8E70000B80300200004002096
:103F0000D0D100006409800038D1000038B5040029
:103F100014D0694606F018FEB0B1BDF8000000EB01
:103F200080010B4800EB8100C16851B1A17A41B119
:103F3000C168491EC1600020A07238BD48F204600B
:103F400038BD48F2056038BD48F2096038BD000050
:103F5000F00980001FB501A9684606F0ADFD04B068
:103F600010BD07B513460A466946002006F0A4FDB9
:103F70000EBD07B513460A460021684606F09CFDB3
:103F80000EBD20B119B1006808600020704748F2EA
:103F900004607047F8B50D46040018D0BDB16946FD
:103FA00006F0D2FDB0B1BDF800000C4900EB800076
:103FB00001EB800001210C30666801F0CCFF2E601F
:103FC00060680C3068600120A0720020F8BD48F2E3
:103FD0000460F8BD48F20960F8BD0000F0098000F7
:103FE00018B10323002208F05DBE48F20460704758
:103FF0000223002208F056BE094910B50A69042AB6
:104000000AD0084A096942F8210005480121103008
:1040100001F0A1FF002010BD48F20B6010BD0000B0
:1040200098030020540980002DE9F84F04462448E5
:104030000078D8B1F4B112212046FCF74AFA0320E7
:10404000DFF880902080002504F1100804F10E0AAA
:1040500005EB850109EB810630897189084487B237
:10406000706804F021FD032807D009E048F20160E0
:10407000BDE8F88F48F20460FAE72088401E2080EF
:104080006088F16808446080208971890844208133
:10409000608938446081C7F58060A18980B281421F
:1040A00000D2A0815346A21D211D2846CDF80080D4
:1040B00006F0E6FD6D1CADB2022DC9D30020D7E796
:1040C000B8030020F0098000826883881A400368E2
:1040D0009A5C0A708168491C81607047C268838855
:1040E0001A4003689954C168491CC160704743F67F
:1040F000FE71A0F54040884201D8012070470020A1
:10410000704710B504460078182802D1FDF78CFEE0
:10411000207010BD10B504460078182802D1FDF7B4
:1041200083FE207010BD0AB101F002BF01F0B5BEE0
:1041300070B50D460446B0F8D810D0F8D40001226E
:10414000FDF7FCFA00B1057004F13C0204F1D40162
:1041500004F1540072DF70BD70B5134600220546AD
:10416000112900D10122074C33B12179FDF780FEDE
:1041700000226178284600E06178BDE87040FDF7D4
:1041800077BE0000E0020020F7B517460E0011D000
:104190000098002560B100242146684601F0BDFE6C
:1041A00018B1A0B23946B0476D1C641C142CF3D36F
:1041B0002846FEBD0020FEBD406806F039BB000069
:1041C0000EB516A19DF8080020F00F00401C20F04D
:1041D000F00010308DF808000F2202A87CDF08B133
:1041E000FCF710FE40F2C13078DF08B1FCF70AFEA0
:1041F0000020009001900620ADF800001821ADF8D5
:1042000004002B20ADF80600ADF8021068467ADFF6
:10421000002801D0FCF7F6FD0EBD00004E6F726461
:1042200069635F4B6579626F6172640070B510B14C
:104230004FF4064070BD1C4C0025207B08B125734F
:1042400001E000F0A5F8207808282AD2DFE800F085
:104250002904080C10291422BDE8704000F026B88B
:10426000BDE8704000F082B8BDE8704000F064B86E
:10427000BDE8704000F040B80620207060880A4910
:1042800000EB8000283901EB80004068BDE87040F9
:1042900004F060BC072020706560BDE8704004F049
:1042A00067BC48F20E6070BD180A80001149F0B476
:1042B0008A1C00200346A1F128050C18A67A4EB1ED
:1042C000A37200EB800405EB8404E66816B9247C35
:1042D000012C0AD0401C80B20228EED30B704B8018
:1042E0004B60F0BC41F61D5070471080F0BC00F0F0
:1042F0003DB80000180A80000C48418801EB81029B
:10430000A0F1280101EB8201CA6852B105210170B8
:10431000074802218180016800230122054802F03C
:1043200047B9042202704968F6E70000180A8000C5
:10433000C00300200004002038B50A4908480324BF
:104340000B684268898803EB810153880470DB1C89
:1043500000201B0400909B0B034802F07DFA38BD3F
:10436000180A8000C003002000040020074910B58F
:104370004888091D06F038FC18B1BDE81040FFF769
:10438000DBBFBDE81040FFF7B7BF0000180A800090
:1043900070B5194C0121207808281AD2DFE800F006
:1043A0000419191C252929182089134A401C208129
:1043B000002060802073283A00EB800312F823303D
:1043C00043B100232518401C80B2AB720228F3D3FE
:1043D000217070BD0123F5E76068084940888A882C
:1043E000C01C10448880022004E000F009F8062078
:1043F00000E00720207070BD180A8000C003002074
:104400000A4909484988026801EB810307492839AC
:1044100001EB83014B6803604A6082880A810222B3
:104420008280002008747047C0030020180A8000B2
:104430002DE9F043064680883288DFF85C8185B03C
:104440000746502A37D010DC5449554B06F10A056F
:10445000A1EB03014FEAD1014FF0020303EB01444A
:10446000352A3AD0362A07D168E0522A02D0542A97
:10447000F9D102E001F0F4F882E0142249496846DB
:10448000FCF70EF8ADF80270384600F0CFFDADF83D
:10449000040000F0C9F90022444698F80410384698
:1044A000FDF7E6FC0022E1783846FDF7E1FC6846BE
:1044B000FFF7BCFB64E0307B012861D1B07A0128B2
:1044C0005ED13089A0F52451023959D101213846F5
:1044D00001F01AF908F07AF952E098F80610FDF7A1
:1044E000AFFC00284CD0002298F806103846FDF7A3
:1044F000BFFCF288B2F5857F17D012B120462AA101
:104500000BE02A88012A03D0204636A102F060FD84
:104510006A88012A04D0204641A102F059FD04E036
:10452000A98800223846A1DF08B1002125E0012238
:1045300098F807103846FDF79BFC21E04FF0000982
:1045400098F80710FDF77CFCD0B1002298F807100E
:104550003846FDF78DFCF28812B1204612A104E026
:10456000AA88012A04D020462DA102F031FD03E0E3
:10457000A87900B1012081464946384607F06EFD12
:104580000022364998F80200FDF7FEFB05B0BDE8B1
:10459000F04307F099B800006000800000EB0000D5
:1045A00000EB0000B0CF0000556E65787065637455
:1045B0006564204741545420737461747573207787
:1045C00068696C652067657474696E672043415241
:1045D00020636861722076616C75653A20307825B9
:1045E000780000004D756C7469706C652028256436
:1045F0002920434152206368617261637465726966
:10460000737469637320666F756E642C20757369AB
:104610006E67207468652066697273742E000000EE
:10462000556E6578706563746564204341522063FC
:10463000686172616374657269737469632076611D
:104640006C7565206C656E67746820282564292C5C
:104650002073746F726520302E000000FD12000080
:1046600070B504460078002814D1608800F0F8FF87
:104670006588284600F0E8F928B107480122C1788A
:104680002846FDF7F5FB6088FEF7E4FCBDE87040C6
:1046900008F09CB870BD00006000800070B5204C30
:1046A00000252570FDF7C0FB6070FDF7BDFBA07015
:1046B000FDF7BAFBE070FDF7B7FB2071FDF7B4FB27
:1046C0006071FDF7B1FBA071FDF7AEFBE0716278A0
:1046D0000121182A18D0A278182A15D0E278182AB1
:1046E00012D02279182A0FD06279182A0CD0A27918
:1046F000182A09D0182807D004F10C000560BFF370
:104700005F8F2170002070BD0648074A801AC008DC
:1047100001EB0040054902F057FC032070BD00008A
:104720006000800000EB000000EB0000B4D400004B
:104730007CB504460078092837D1607A58BB207AC6
:104740001C4E4FF6FF75012811D0072802D008280B
:104750002BD121E0A08800F03DFB0446A84224D0E4
:10476000012100F0D1FF2046FEF774FC1DE0A08877
:104770006A46012104F0A4FB68B90198007850B1A1
:10478000A08800F027FBA8420FD00122F178FDF7A6
:104790006FFB06F099FF08E0F068012805D1BFF330
:1047A0005F8F044900200C310860BDE87C4008F0B0
:1047B0000DB800006000800010B50B48FEF7C7FF81
:1047C000094A083AD2E90434C018D2E9063244F161
:1047D0000001C31A71EB020204D24FF080728018FC
:1047E00041F1000110BD00006003002010B5C0B20F
:1047F000FEF718FC0446007803F02EF901466078B5
:10480000012801D0012000E0002090EA010F08D02B
:104810000449D1E90401084303D1BDE8104007F081
:1048200029BD10BDA00080001CB5054AD2E90212C6
:10483000CDE900120022694604F008FD1CBD00000D
:10484000C8CF000003484FF6FF718180012101703D
:1048500000207047600200202DE9FC41804600F0F6
:10486000E5FB002403250127A0F57F412646FF39FB
:1048700008D06A46082104F023FB18B90198841D6A
:104880008688056832462B4621464046B1DF04281B
:1048900004D0082804D00B2808D002E0112000E042
:1048A0000020002F00D10B20BDE8FC810027A807C5
:1048B00001D50125E6E7344303D00024264603252D
:1048C000E0E7064806494246401AC008012101EBCC
:1048D0000040044902F07CFBE5E7000008EB000023
:1048E00000EB00007CD700002DE9FF47824600F076
:1048F0009DFBA0F57F418146FF3916D03B493C4ADC
:104900000127891AC90807EB014600BF3A467F1CF8
:104910004FF00008BFB202AB0821484604F01AFB72
:10492000040007D0072C5ED05EE043F2020004B022
:10493000BDE8F087039D03232A1DA91D50462B6067
:10494000B2DF040004D00C2C37D0052C38D038E06E
:104950006A460821484604F0B3FA58B1052814D035
:1049600002F050FF02463046534622A102F037FBC8
:104970000320DCE70198AA888088824205D101994A
:10498000A81D891DFBF7B7FD30B14A460821104626
:1049900004F058FB044627E00821484604F048FB91
:1049A00048B102F02FFF034630464A461F4902F045
:1049B00016FB032418E00B2416E04FF0010800E07A
:1049C00000240821484604F033FB40B102F01AFFEE
:1049D000034630464A46154902F001FB0324B8F16C
:1049E000000F93D100E00C242046A0E708EB000064
:1049F00000EB00007064625F706565725F646174F3
:104A0000615F7074725F67657428292072657475C0
:104A1000726E656420257320666F7220636F6E6E00
:104A20005F68616E646C653A20256400FCD6000006
:104A300004488088A0F57F41FF3901D006F04EBEC2
:104A400070470000600200200EB502A9019100F03D
:104A5000EDFA6A46012104F033FA08B100200EBDD8
:104A6000019800780EBD00002DE9F04107464FF691
:104A7000FF761048B3DF78B102F0C4FE02460E485C
:104A80000E49401AC008012101EB00400C4902F018
:104A90009FFA0320BDE8F081064C43F20305A41EF3
:104AA000324661883846AFDFA842F3D16088401CA7
:104AB0006080F5E76202002008EB000000EB0000D8
:104AC000B0D60000428800EB82020C328A4201D943
:104AD000022070478188A1F57F42FF3A06D0018805
:104AE00021B18068401C01D0002070470120704730
:104AF000884204D20068401C01D001207047002089
:104B0000704770B50C468AB0064634F8300F8DF801
:104B10002000000A8DF82100A0788DF82200E078AE
:104B20008DF82300042520216846FBF7D2FC42F6CD
:104B30004A20ADF800009DF80D00ADF8045040F09B
:104B400002008DF80D0020798DF8110008A8ADF84D
:104B500006500290308906F5B3726946FEF718FBDD
:104B60000AB070BDF0B5344893B0002540F8225F1C
:104B7000082145608560C560056145612E480126B4
:104B80002230022401808570C670847144710471E2
:104B90000830032706808570C470447104710830A2
:104BA000482104808570C770047144716846FBF722
:104BB00090FC22480090224801901F488DF8086020
:104BC00022300390083005908DF809508DF80A6066
:104BD000083007908DF810604C20ADF8240019487B
:104BE000089040F20110ADF830008DF832508DF889
:104BF00033708DF818608DF844408DF83C400E48B5
:104C00008DF836508DF82C408DF845408DF83D409C
:104C10000E958DF834408DF842408DF846408DF861
:104C20003E4069464430FDF73EFC002801D0FCF7C9
:104C3000E9F813B0F0BD0000000000206986000014
:104C400061B90000CC01002000B585B00821034601
:104C500004914FF6FF7204A9684605F0BDFA08B149
:104C6000FCF7D0F86846049904F098FD002801D0BC
:104C7000FCF7C8F805B000BD3EB5027802230C462B
:104C8000B3EB520F17D1B0F80110ADF80010C17896
:104C90008DF802108188ADF8041080798DF8060037
:104CA00002AA01A92046FBF7E7FF032202A96846F2
:104CB000FBF721FC08B100203EBD01203EBD0000F5
:104CC00070B50D460446142810D2FDF7EDF868B112
:104CD000084904EB840001EB4000D0F80210296081
:104CE000C188A980007AA871002070BD43F202003B
:104CF00070BD00004004002070B5018890B01029FC
:104D000061D1011D28226846FBF7CAFB9DF804000B
:104D10004FF6FF7603213446B1EB500F2BD004F051
:104D200053FA9DF804006D4640080ED001280CD0BF
:104D3000022820D118E00C99281D1131FBF7E8FE5C
:104D400018B100BFBDF8284015E00BAA0AA907203A
:104D500004F00EFA0028EED10DE00C99281D491C34
:104D6000FFF78AFF0028EDD10BAA0AA9072004F05B
:104D7000FFF90028F1D1BDF80000B44200EB80013A
:104D8000124820F8114000EB41000199C0F80210D0
:104D9000BDF80810C1809DF80A10017213D0BDF84B
:104DA0000000ADF82A000020ADF82C40084E8DF828
:104DB00028000AAD044600BF56F82410284688474C
:104DC000641C022CF8D310B070BD00004004002019
:104DD000DCCF00002DE9F0414FF6FF760546B042EA
:104DE00013D00B4F002400BF04EB840037F81000F1
:104DF000A84206D12046FDF757F810B12046BDE87D
:104E0000F081641CA4B2142CEED33046F7E7000006
:104E1000400400202DE9F043CFB00E460746082994
:104E200003D907204FB0BDE8F08317B30EB350206D
:104E30004D90E846CDF830D1B82114A8FBF749FBD6
:104E4000002043AA0DF15001C0EBC00303EB001397
:104E50000B4442F82030401C0828F5D32448254A4A
:104E60000024801AC0080222C14602EB0045884691
:104E700036E00022114610466FDFD3E75021684626
:104E8000FBF727FB37F814004DAB4BAA072104F0C2
:104E9000A3F9052810D007280ED09DF8110040086E
:104EA00012D0012810D037F814202846124902F0F9
:104EB0008FF843F20220B5E737F8142028460F494F
:104EC00002F086F80520ADE7C4EBC40000EB041146
:104ED00001EB0800172209F10101FBF7E1FA641C5C
:104EE000B442CBD3F2B2002143A86FDF9AE70000AF
:104EF00010EB000000EB0000F4D700007CD80000AD
:104F00003EB50C46054604F05FF90BE0BDF8000025
:104F1000A04207D02846029900F00EF810B1BDF863
:104F200000003EBD01AA6946072004F021F90028CF
:104F3000ECD14FF6FF703EBD2DE9F0410C46054621
:104F400000F1110701F111061022491C401CFBF76A
:104F5000D2FA48B9681C00F087FA28B1601C00F04A
:104F600083FA08B1012400E0002431463846FBF7FB
:104F7000CFFD3B780222B2EB530F0CD00321B1EBF3
:104F8000530F08D03378B2EB530F04D0B1EB530F6B
:104F900001D0012100E00021084201D18C4302D060
:104FA0000120BDE8F0810020FBE7018811B942181B
:104FB00092780AB101207047491C0829F7D30020D4
:104FC000704710B50C460346FFF7EFFF00280AD0E4
:104FD00018882188884205D10822A11C981CFBF75B
:104FE0008AFA08B1002010BD012010BD142804D297
:104FF000024A00EB800022F81010704740040020A5
:1050000070B50546FFF7E6FE0446284603F05CFF50
:10501000002808D1142C06D2034B04EB84024FF66F
:10502000FF7123F8121070BD4004002010B5044633
:10503000142808D2FCF738FF28B1044904EB840097
:1050400031F8100010BD4FF6FF7010BD4004002075
:105050003EB5044604F0B8F80EE00199204646310A
:10506000FFF7AFFF28B9019920462A31FFF7A9FFC2
:1050700010B1BDF808003EBD6A4602A9072004F041
:1050800077F80028E9D14FF6FF703EBD7CB5144695
:105090000A000A49097802D015688D4203D323B16A
:1050A0001D688D4201D204207CBDCDE9004313462A
:1050B0000246034804F058FA7CBD00006C02002050
:1050C0000805002070B50C4606469AB01021184815
:1050D000FBF7FFF9174800252EB324B304706200D4
:1050E00031461348FBF7DCF9382102A81895FBF785
:1050F000F0F9009518AB02AA21463046019504F05C
:1051000033FA00280DD110AA0DF10801C0EBC0033D
:105110000B4442F82030401C0828F7D3E1B2104677
:105120006EDF1AB070BD0570002108466EDFF8E72B
:10513000080500206C02002010B50A4941600A48A9
:1051400000F006FF58B902F0BDFA07491C238C2273
:10515000087404488C39001F006800F05FFE0020CE
:1051600010BD0000C4D10000500600202DE9F04120
:105170002C4D002420B16C604FF40640BDE8F08156
:105180000879012250B1284B01280BD0254A02266C
:105190000832022821D0032829D12CE00A7103F01B
:1051A000E7FC22E05FF0000000EB800113F8211023
:1051B000022908D0401C80B20228F5D32A706C6006
:1051C00041F61D50DAE700EB800003F8204003EBC6
:1051D0008000406803F0BEFC07E00C719680116807
:1051E00000230122114801F0E3F90028C6D06C60C9
:1051F00048F20D60C2E70C480C71283041881068F5
:1052000001EB810703EB8701D1F804C0C2F800C0AD
:105210004860B2F804C0A1F808C0968003F827409F
:10522000D8E70000B8030020F00980000004002047
:10523000FEB50646887A0D4670B3E86860B3002470
:1052400027E0E86800EBC403002002909DF8080006
:1052500040F002008DF80800597911B140F00800C3
:1052600001E020F0080040F010008DF8080004EB89
:10527000840006EB4000191D1430CDE9001033F80E
:10528000022B02A9304605F047FD002805D1641C19
:10529000E4B2A87AA042D4D80020FEBD014603485B
:1052A00002888A4200D0002070470000C8058000B4
:1052B0002DE9FC5F0E008346DDE90C47C6F10000D6
:1052C00098469246814600D40846012503E000BF77
:1052D00090FBFAF06D1C5045FADAA84500D9454616
:1052E00024B1002E01DB780700D5641EB80702D573
:1052F000B8F1000F0AD0F80708D13CB1A54205D299
:1053000020215846641EFDF705FEF6E7002E02DA5E
:105310004E462D2102E0780703D52B215846FDF794
:10532000F9FD07F0030002280BD1B8F1000F08D1F6
:105330003CB1A54205D230215846641EFDF7EAFD76
:10534000F6E7CDE90047434652463146584607F056
:10535000E3F9BDE8FC9F000070B50D460446006807
:105360004FF4887102F06EFA4FF49071206802F0E9
:1053700069FA4FF49271206802F064FA4FF4A27156
:10538000206802F05FFA4FF4AC71206802F05AFA1C
:1053900020681249C0F804132068690740F30730F9
:1053A000090E002804DB00F1E02080F8001405E07D
:1053B00000F00F0000F1E02080F8141D206840F399
:1053C0000730002809DB00F01F020121914040094D
:1053D000800000F1E020C0F8001170BD1003420011
:1053E000024600201268530713D502F0030001287B
:1053F00002D002280CD105E0C2F383100B68801C98
:10540000184404E00223086803EB92521044086039
:10541000012070470248007A002800D00120704720
:1054200050060020F0B58488A518944200D8224682
:10543000A41AC288D6189A4200D81346D21A4B88AA
:105440000788BB420CD34088834209D88888A04291
:1054500006D3A84204D8C888904201D3B04201D9EB
:105460000020F0BD0120F0BD0021425C0AB1012006
:105470007047491C1029F8D300207047800701D0DD
:1054800000207047012070477CB5044601A80090B9
:105490000D46002322460E4806F05AF813280CD079
:1054A000002809D0082807D0112805D043F201416F
:1054B000884201D0FBF7A6FC7CBDBDF80430A342B6
:1054C000FAD8224629460248FDF778FD7CBD000047
:1054D000440000200A4810B5807860B1002401E043
:1054E000022C06D02046FDF771FA641C042CF7D379
:1054F00010BD0324F6E7BDE81040FDF787BA0000B1
:105500002800800003480179C90702D00078FDF720
:10551000CFBB704728008000172101804180002107
:1055200001714171704700002DE9FE4F2E4F9846E2
:1055300092460D00814601D000260DE0684600F03D
:10554000ADFB6A460021484603F016FC3878009E01
:1055500010B99DF8090098B152463146484606F008
:1055600031FC0446014600224846FEF7F5FD0D2CAD
:1055700037D008DCA4B3082C33D00B2C09D130E091
:105580000520BDE8FE8F112C1ED0A4F54050023836
:1055900027D0204602F036F90246144814494B46FB
:1055A000401AC008012101EB0040124901F017FD2B
:1055B0005FF00305B8F1000F04D03246214648469B
:1055C000FEF764FA2846DCE72A46F9784846FCF7F5
:1055D0004FFC5246B9784846FCF74AFC0025E9E7FB
:1055E000FFE72546E6E70000E002002048EB000068
:1055F00000EB000058E2000070B50E460C4915465D
:1056000004460978FCF71CFC00280FD0204603F064
:1056100059FB00282A463146204603D0BDE8704099
:1056200003F056BBBDE87040FEF790B970BD0000B6
:105630008400800070B5094D0646A978FCF700FC8F
:105640000446E9783046FCF7FBFB0146224630462B
:10565000BDE870400123FFF767BF0000E0020020B3
:10566000F0B585B00546002714216846FAF731FFEA
:10567000A5F57F40ADF80250FF3825D02846FFF74A
:10568000EBF8040022D01B481B49401AC6080B2C1B
:1056900022D0112C1ED0A4F5405002380ED0204646
:1056A00002F0B0F80246012000EB06402B461349F9
:1056B00001F095FC2146284605F08AFF10483A463D
:1056C00081782846FCF7D4FB05B0F0BD0F208DF89B
:1056D00000000BE00127F1E710208DF80000022008
:1056E00000EB06402A46074901F072FC6846FEF7C7
:1056F0009DFAE3E700EB000000EB000084D500001A
:1057000060008000D8D500000A4602494978FCF7BD
:10571000AFBB0000600080002DE9F041002786B09B
:1057200080463E46FFF7E0F804461F481F49401AEE
:10573000C508112C23D003DCFCB10B2C06D114E0DE
:10574000862C1ED0A4F5405002380ED0204602F020
:1057500059F80246012000EB0540434614A101F030
:105760003EFC2146404605F033FF39464046FFF7F0
:10577000CBFF06B03046BDE8F0810126F5E70127F2
:10578000F3E714221A496846FAF78AFE0220ADF8B8
:10579000028000EB0540424616A101F019FC684664
:1057A000FEF744FAE1E7000000EB000000EB000028
:1057B0006773636D5F6C6F63616C5F64625F63618D
:1057C0006368655F7570646174652829207265740B
:1057D00075726E656420257320666F7220636F6E2C
:1057E0006E5F68616E646C653A202564000000009D
:1057F00088CF0000466C6173682066756C6C2E2043
:10580000436F756C64206E6F742073746F726520C3
:105810006461746120666F7220636F6E6E5F686191
:105820006E646C653A20256400000000704700003B
:105830002DE9FF410026244800F087FB2248001F85
:10584000074600F082FB214C2149A06800900D68BA
:1058500000E000986946284004EB80000C30FFF718
:10586000BFFD0028F5D101AA009901EA050304EB68
:105870008303491CDB6842F82030401C0091022859
:10588000F2D3019800F0030001280BD0022810D1B8
:105890000198032101EB90500099BDF80A6001EBDB
:1058A000900005E00198BDF80A60C0F38310084439
:1058B0000090384600F046FB08B10098A06004B0A4
:1058C0003046BDE8F0810000280F8000100B8000FA
:1058D000EC0080008AB0182267496846FAF7E0FDBC
:1058E0006648069066494FF48070CDE9070109903B
:1058F0000723644A06A96846FBF7E8FB08B1FBF7F3
:1059000081FA4FF48041002001F0DCFB08B1FBF785
:1059100079FA01F031FAFBF745FB08B1FBF772FAAF
:105920005548594A0121001FFBF72CFB08B1FBF732
:1059300069FA56490320FDF771F908B1FBF762FADD
:1059400069460020FDF786F808B1FBF75BFA9DF881
:10595000000002287DD0002501F0BEFC08B1FBF755
:1059600051FA01F063FE08B1FBF74CFA00246946D6
:105970000120009401F0EEFC08B1FBF743FA684601
:1059800001F064FD08B1FBF73DFA3C4A0A21F03A08
:105990000820FBF7DBFA08B1FBF734FAFEF710FC3E
:1059A00000213B4800F05DFB08B1FBF72BFAFBF749
:1059B000F3F805F0D7FF37485121016064214160B9
:1059C0000121816001730146334805F045FE1C2129
:1059D0006846FAF77EFD4FF4A030CDE900404FF461
:1059E000F020032602908DF80C602C48ADF80E4094
:1059F0008DF81040CDE905406846FCF771F908B113
:105A0000FBF700FA234810305FF0000180F83C40BB
:105A100080F83D4080F83E4001EB410200EB8202FD
:105A2000491C54600529F7D303F068FD1C481D4943
:105A3000401AC00806EB00401BA101F0C5FA0E4851
:105A40000022001F4FF400410068FBF7D9FA18B19B
:105A500000E00EE0FBF7D6F92846FBF7E1F800BFBF
:105A6000FBF754FA01F096F90028F9D101F048FC4F
:105A7000F6E7012570E700000CCF00002C02800043
:105A80002C038000E1C2000021150000492B00001A
:105A900040048000540580003C0000208334000056
:105AA000B0EB000000EB0000484944204B657962F0
:105AB0006F617264206578616D706C6520737461CC
:105AC000727465642E000000002360F30F03184613
:105AD00061F3174062F31F60704770B51446828807
